:04330000D5EF19F0FC
:0E3308004782FACF24F0FBCF25F0DAEF1EF05B
:103318004780D8CF32F0E8CF33F0E0CF34F0FACF9F
:1033280035F0FBCF36F0E9CF37F0EACF38F0E1CF10
:1033380039F0E2CF3AF0D9CF3BF0DACF3CF0F3CF17
:103348003DF0F4CF3EF0F6CF3FF0F7CF40F0F8CFA6
:1033580041F0F5CF42F08CEF15F042C0F5FF41C0C7
:10336800F8FF40C0F7FF3FC0F6FF3EC0F4FF3DC086
:10337800F3FF3CC0DAFF3BC0D9FF3AC0E2FF39C0D7
:10338800E1FF38C0EAFF37C0E9FF36C0FBFF35C0B0
:10339800FAFF34C0E0FF33C0E8FF32C0D8FF4790DF
:1033A8001000B8EF1FF0D3EC1FF000018A5175EC44
:1033B8001CF052D1EDEC1FF0030AD8A4F6D7010E89
:1033C8000AD0EDEC1FF000017A6F030E00017A19A4
:1033D800D8A404D0FFD000018A6FE7D7020E0001FD
:1033E8007A19D8A402D0010E00D100017A05D8A418
:1033F8000BD0020E00018C6103D000018C2BD5D7B5
:10340800020E00018C5FD1D7040E00017A19D8A4EE
:10341800CCD7010E00018C6503D000018C07C5D7FD
:10342800020E00018C27C1D7EDEC1FF000017A6F66
:10343800030E00017A19D8B4CDD0020E00017A1912
:10344800D8A402D0020ED1D000017A05D8A411D098
:10345800020E00018C19D8A405D0030E00018D615D
:1034680006D002D0090EFAD700018D2B9ED7000E88
:1034780018D0040E00017A19D8A497D7020E0001BB
:103488008C19D8A406D000018D51D8A406D0030EFB
:1034980008D000018D51D8B403D000018D0785D71D
:1034A800090E00018D6F81D7EDEC1FF000017A6FD6
:1034B800030E00017A19D8B48DD0020E00017A19D2
:1034C800D8A402D0030E91D000017A05D8A40BD05D
:1034D800050E00018E6103D000018E2B66D7050E04
:1034E80000018E5F62D7040E00017A19D8A45DD757
:1034F800010E00018E6503D000018E0756D7050E18
:1035080000018E2752D7EDEC1FF000017A6F030EF1
:1035180000017A19D8B45ED0020E00017A19D8A435
:1035280002D0040E62D000017A05D8A40BD0090E8F
:1035380000018F6103D000018F2B37D7000E0001E7
:103548008F6F33D7040E00017A19D8A42ED7000143
:103558008F51D8B403D000018F0727D7090E000177
:103568008F2723D7EDEC1FF000017A6F030E0001BF
:103578007A19D8B42FD0020E00017A19D8A402D033
:10358800050E33D000017A05D8A40BD0050E000132
:10359800906103D00001902B08D7050E0001905FC1
:1035A80004D7040E00017A19D8A4FFD6010E000131
:1035B800906503D000019007F8D6050E000190270A
:1035C800F4D6EDEC1FF000017A6F030E00017A19B2
:1035D800D8A405D0000E00018B6F000EFCD6020E99
:1035E80000017A19D8A404D0000E00018B6FDDD633
:1035F80000017A05D8A40BD0090E0001916103D00F
:103608000001912BD2D6000E0001916FCED6040E88
:1036180000017A19D8A4C9D600019151D8B403D0B1
:1036280000019107C2D6090E00019127BED60001FC
:103638008B51000AD8B4C5D6010AD8B4F5D6030A06
:10364800D8B432D7010AD8B45ED7070AD8B48AD713
:10365800010AD8B4B6D7A9D600018A51000AD8B44D
:10366800A9D6010AD8B4E3D7A0D60001616F00013A
:1036780020EE05F08851D9268951DA2200016151DE
:10368800DF26000120EE05F08851D9268951DA227B
:10369800090EDF641200000120EE05F08851D926DA
:1036A8008951DA220A0EDF5E000120EE04F088510B
:1036B800D9268951DA22DF2A000120EE04F0885148
:1036C800D9268951DA22050EDF641200000120EEA6
:1036D80004F08851D9268951DA22060EDF5E0001EE
:1036E80020EE03F08851D9268951DA22DF2A000119
:1036F80020EE03F08851D9268951DA22090EDF64B9
:103708001200000120EE03F08851D9268951DA22EF
:103718000A0EDF5E000120EE02F08851D926895199
:10372800DA22DF2A000120EE02F08851D9268951D9
:10373800DA22050EDF641200000120EE02F0885143
:10374800D9268951DA22060EDF5E000120EE01F04B
:103758008851D9268951DA22DF2A88C0D9FF89C041
:10376800DAFFDE04D8A419D0000120EE01F0885158
:10377800D9268951DA22090EDF641200000120EEF1
:1037880001F08851D9268951DA220A0EDF5E88C0F5
:10379800D9FF89C0DAFFDF2A120088C0D9FF89C0A3
:1037A800DAFF020EDE18D8A41200000120EE01F0A4
:1037B8008851D9268951DA22020EDF6412000001ED
:1037C80020EE01F08851D9268951DA22000EDF6EE9
:1037D80088C0D9FF89C0DAFF000EDF6E1200000131
:1037E800656F000E0001676F000E666F000E000126
:1037F8006B6F000E6A6F00016BBF08D000016B5140
:1038080046E1040E00016A5DD8B041D06AC062F09A
:10381800010E0001636F000E0001646F0001622B4E
:1038280004D0D8900001633764370001622FF9D7BC
:103838000001605100016317000161510001641724
:103848000001635100016411D8B41DD00001D89063
:103858006A350001626F030E0001636F000E0001FC
:10386800646F0001622B04D0D8900001633764377D
:103878000001622FF9D700016351000166130001AE
:1038880064510001671300016A4B6B2BB4D7000E1B
:103898000001696F000E686F000169BF08D0000160
:1038A80069511EE1020E0001685DD8B012000001E6
:1038B8006551000168250001626F000E0001692151
:1038C8000001636F000E00016225D96E070E00012A
:1038D8006321DA6E66C0DFFF0001684B692BDCD715
:1038E80012000001756F1BEC1FF060C076F061C01C
:1038F80077F062C078F063C079F080C06DF081C065
:103908006EF082C06FF083C070F000016D1F6E1FF3
:103918006F1F701F6D2B000E6E236F237023000125
:10392800765100016D250001716F0001775100018A
:103938006E210001726F0001785100016F210001B2
:10394800736F00017951000170210001746F00014B
:1039580074510001731108E1E90E0001715D030E55
:1039680000017259D8A01200000175510001D8A4B5
:103978000ED0010E39EC1BF076C080F077C081F0D4
:1039880078C082F079C083F071EC1DF0120076C027
:1039980060F077C061F078C062F079C063F0E80E3B
:1039A8000001646F030E656F000E666F000E676F8F
:1039B8008DEC1EF0000163510001621108E12C0E2C
:1039C8000001605D010E00016159D8A003D071ECBF
:1039D8001DF0120007EC20F033EC20F0120000017B
:1039E8006A6F6AC060F00001616B000E0001636FCE
:1039F8000A0E626FDDEC1DF00001605188C0D9FF2E
:103A080089C0DAFFDF6E000120EE01F08851D92667
:103A18008951DA226AC060F00001616B000E000172
:103A2800636F0A0E626F3CEC1EF000016051DF6E9E
:103A3800000120EE02F08851D9268951DA2268C0A7
:103A480060F00001616B000E0001636F0A0E626F87
:103A5800DDEC1DF000016051DF6E000120EE03F087
:103A68008851D9268951DA2268C060F00001616B5B
:103A7800000E0001636F0A0E626F3CEC1EF000013D
:103A88006051DF6E000120EE04F08851D92689517B
:103A9800DA2269C060F00001616B000E0001636FFB
:103AA8000A0E626FDDEC1DF000016051DF6E00014F
:103AB80020EE05F08851D9268951DA2269C060F0D4
:103AC8000001616B000E0001636F0A0E626F3CEC2F
:103AD8001EF000016051DF6E120088C0D9FF89C056
:103AE800DAFFDF5000016C6F00016C510001606F5C
:103AF800616B0D0EF3EC1BF0000120EE01F0885114
:103B0800D9268951DA22DF5000016C6F00016C510F
:103B18000001606F616B0B0EF3EC1BF0000120EEEF
:103B280002F08851D9268951DA22DF5000016C6FE2
:103B380000016C510001606F616B080EF3EC1BF023
:103B4800000120EE03F08851D9268951DA22DF508E
:103B580000016C6F00016C510001606F616B060E13
:103B6800F3EC1BF0000120EE04F08851D9268951AE
:103B7800DA22DF5000016C6F00016C510001606FA8
:103B8800616B030EF3EC1BF0000120EE05F0885189
:103B9800D9268951DA22DF5000016C6F00016C517F
:103BA8000001606F616B010EF3EC1BF033EC20F049
:103BB8001200000E0001656F000163AF08D000011C
:103BC800626D631FD8B0632B010E0001656F0001A1
:103BD80061AF08D00001606D611FD8B0612B010E84
:103BE8000001651B000E0001676F000E666F000183
:103BF800625100016311D8B42CD0010E0001646F2A
:103C080006D00001D890623763370001642B0001A9
:103C180063AFF7D70001D890663767370001625164
:103C28000001605D0001635100016159D8A00AD00C
:103C3800000162510001605F000163510001615B96
:103C4800000166810001D890633362330001642F5C
:103C5800E1D7000165510001D8B405D00001666DB7
:103C6800671FD8B0672B66C060F067C061F01200AC
:103C7800000E0001656F000161AF08D00001606DA2
:103C8800611FD8B0612B010E0001656F000163AFA1
:103C980005D00001626D631FD8B0632B000162512B
:103CA80000016311D8B426D0010E0001646F06D05C
:103CB8000001D890623763370001642B000163AFBD
:103CC800F7D7000162510001605D000163510001F6
:103CD8006159D8A008D0000162510001605F00015D
:103CE80063510001615B0001D890633362330001C6
:103CF800642FE7D7000165510001D8B405D0000151
:103D0800606D611FD8B0612B60C060F061C061F068
:103D180012000001645100016511000166110001E3
:103D28006711D8B43AD0010E0001686F08D00001BD
:103D3800D89064376537663767370001682B00010C
:103D480067AFF5D7000164510001605D000165515E
:103D58000001615900016651000162590001675173
:103D680000016359D8A010D0000164510001605FC0
:103D7800000165510001615B000166510001625B51
:103D8800000167510001635B0001D8906733663317
:103D9800653364330001682FD5D760C060F061C017
:103DA80061F062C062F063C063F01200E9CF26F0F0
:103DB800EACF27F0E1CF28F0E2CF29F0D9CF2AF0D7
:103DC800DACF2BF0F3CF2CF0F4CF2DF0F6CF2EF086
:103DD800F7CF2FF0F8CF30F0F5CF31F0F2A407D0BD
:103DE800010E00018427000E85238623872384EF94
:103DF80015F031C0F5FF30C0F8FF2FC0F7FF2EC017
:103E0800F6FF2DC0F4FF2CC0F3FF2BC0DAFF2AC049
:103E1800D9FF29C0E2FF28C0E1FF27C0EAFF26C07A
:103E2800E9FF25C0FBFF24C0FAFF4792110084C0B8
:103E380064F085C065F086C066F087C067F0040E40
:103E480006D00001D8906733663365336433E82EB3
:103E5800F8D784C068F085C069F086C06AF087C06A
:103E68006BF0030E06D00001D8906B336A336933C8
:103E78006833E82EF8D70001645100016825000175
:103E8800606F00016551000169210001616F000147
:103E9800665100016A210001626F0001675100014B
:103EA8006B210001636F1200000E0001656F000EA8
:103EB800646F0001625100016311D8B42CD0010E67
:103EC8000001666F06D00001D890623763370001A1
:103ED800662B000163AFF7D70001D89064376537C8
:103EE800000162510001605D0001635100016159E8
:103EF800D8A00AD0000162510001605F000163513F
:103F08000001615B000164810001D8906333623372
:103F18000001662FE1D764C060F065C061F012004F
:103F280067C060F068C061F0000E0001636F0A0EA0
:103F3800626F58EC1FF060C067F061C068F00DD088
:103F48009C0E0001696FD70EE82EFED7692FFCD7AB
:103F580000F000016707D8A0680700016751000159
:103F68006811D8B41200ECD7640EF66E400EF76EE6
:103F7800000EF86E0900F5CF45F00900F5CF46F0C0
:103F880000EE80F0120EEE6AE806FDE1446A436A2C
:103F980047904792000EF86E00011DEF20F08C0E3E
:103FA8000001886F000E0001896F1E0E0001686F06
:103FB800000E0001696F0C0EF3EC1CF01BEC1FF0F7
:103FC80060C080F061C081F062C082F063C083F09D
:103FD800120000C060F0000E006E000160A302D065
:103FE800010E1200000160A902D0040E12000001A7
:103FF80060A502D0020E1200000160A702D0030ED5
:104008001200000E1200000E0001606F0F0E00017A
:10401800606501D0120000016051010D000EF3240B
:10402800D96E070EF420DA6E000EDF6E0001602BE9
:10403800EDD7000E0001686F010E676F94EC1FF05A
:1040480034EC20F035EC20F007EC20F033EC20F0D5
:104058001BEC1FF0D7EC19F0D5EF19F00403120090
:044068001200120030
:020000040020DA
:08000000FFFFFFFFFFFFFFFF00
:020000040030CA
:0E0000002308183CFFD1A0FF00000000000004
:00000001FF
