:04330000D5EF19F0FC
:0E3308004782FACF24F0FBCF25F048EF1FF0EC
:103318004780D8CF32F0E8CF33F0E0CF34F0FACF9F
:1033280035F0FBCF36F0E9CF37F0EACF38F0E1CF10
:1033380039F0E2CF3AF0D9CF3BF0DACF3CF0F3CF17
:103348003DF0F4CF3EF0F6CF3FF0F7CF40F0F8CFA6
:1033580041F0F5CF42F08CEF15F042C0F5FF41C0C7
:10336800F8FF40C0F7FF3FC0F6FF3EC0F4FF3DC086
:10337800F3FF3CC0DAFF3BC0D9FF3AC0E2FF39C0D7
:10338800E1FF38C0EAFF37C0E9FF36C0FBFF35C0B0
:10339800FAFF34C0E0FF33C0E8FF32C0D8FF4790DF
:1033A80010003FEF20F022EC20F000018C513EECA1
:1033B8001BF0000E0001686F320E676FFEEC1FF005
:1033C8009FEC20F04ED15AEC20F0030AD8A4EDD798
:1033D800010E0AD05AEC20F000017C6F030E0001A8
:1033E8007C19D8A404D0FDD000018C6FDED7020E62
:1033F80000017C19D8A402D0010EFED000017C0582
:10340800D8A40BD0020E00018E6103D000018E2BD0
:10341800CCD7020E00018E5FC8D7040E00017C19BC
:10342800D8A4C3D700018E51D8B403D000018E07A9
:10343800BCD7020E00018E6FB8D75AEC20F00001FD
:103448007C6F030E00017C19D8B4CBD0020E0001AA
:103458007C19D8A402D0020ECFD000017C05D8A4D4
:1034680011D0020E00018E19D8A405D0030E000158
:103478008F6106D002D0090EFAD700018F2B95D79D
:10348800000E18D0040E00017C19D8A48ED7020EA5
:1034980000018E19D8A406D000018F51D8A406D0F7
:1034A800030E08D000018F51D8B403D000018F0754
:1034B8007CD7090E00018F6F78D75AEC20F00001F5
:1034C8007C6F030E00017C19D8B48BD0020E00016A
:1034D8007C19D8A402D0030E8FD000017C05D8A493
:1034E8000BD0050E0001906103D00001902B5DD731
:1034F800050E0001905F59D7040E00017C19D8A46D
:1035080054D700019051D8B403D0000190074DD78B
:10351800050E0001906F49D75AEC20F000017C6F2E
:10352800030E00017C19D8B45CD0020E00017C198E
:10353800D8A402D0040E60D000017C05D8A409D01C
:10354800090E0001916103D00001912B2ED7000EC6
:103558000DD0040E00017C19D8A427D70001915181
:10356800D8B403D00001910720D7090E0001916F4C
:103578001CD75AEC20F000017C6F030E00017C1967
:10358800D8B42FD0020E00017C19D8A402D0050EA1
:1035980033D000017C05D8A40BD0050E0001926140
:1035A80003D00001922B01D7050E0001925FFDD6D2
:1035B800040E00017C19D8A4F8D600019251D8B4A1
:1035C80003D000019207F1D6050E0001926FEDD6E7
:1035D8005AEC20F000017C6F030E00017C19D8A47E
:1035E80005D0000E00018D6F000EFED6020E000100
:1035F8007C19D8A404D0000E00018D6FD6D6000126
:103608007C05D8A409D0090E0001936103D00001FC
:10361800932BCBD6000E0DD0040E00017C19D8A434
:10362800C4D600019351D8B403D000019307BDD686
:10363800090E0001936FB9D600018D51000AD8B464
:10364800C9D6010AD8B4F9D6030AD8B436D7010ABC
:10365800D8B462D7070AD8B48CD7010AD8B4B8D777
:10366800A4D600018C51000AD8B4ADD6010AD8B44A
:10367800E3D79BD60001756FC5EC1FF060C078F0EA
:1036880061C079F062C07AF063C07BF0215000011C
:103698006D6F6E6B00016D1F6E1F6D4B6E2B205092
:1036A80000016D250001766F215000016E21000197
:1036B800776F82C06DF083C06EF084C06FF085C0F4
:1036C80070F000016D1F6E1F6F1F701F6D2B000EB5
:1036D8006E236F2370230001785100016D250001CE
:1036E800716F0001795100016E210001726F0001B4
:1036F8007A5100016F210001736F00017B510001B5
:1037080070210001746F000174510001731108E108
:103718002D0E0001715D010E00017259D8A01FD055
:10372800000177AF0DD00C0E0001765DFE0E000192
:103738007759D8B005D00850D8B411D008060FD0A2
:10374800000177BF0CD02D0E0001765D010E00013F
:103758007759D8A004D00F0E086001D0082A82C07B
:103768006DF083C06EF084C06FF085C070F000010A
:103778006D1F6E1F6F1F701F6D2B000E6E236F2342
:1037880070230001785100016D250001716F00015F
:10379800795100016E210001726F00017A51000118
:1037A8006F210001736F00017B510001702100013E
:1037B800746F000174510001731108E1090E0001D2
:1037C800715D070E00017259D8A0120000017551F1
:1037D8000001D8A40ED0010E25EC1CF078C082F0B0
:1037E80079C083F07AC084F07BC085F0DFEC1DF0EF
:1037F800120078C060F079C061F07AC062F07BC0D6
:1038080063F0D00E0001646F070E656F000E666FDF
:10381800000E676FFBEC1EF000016351000162119E
:1038280008E1580E0001605D020E00016159D8A040
:1038380003D0DFEC1DF0120074EC20F0A3EC20F0B4
:1038480012000001616F000120EE05F08A51D926AF
:103858008B51DA2200016151DF26000120EE05F0CC
:103868008A51D9268B51DA22090EDF641200000131
:1038780020EE05F08A51D9268B51DA220A0EDF5E36
:10388800000120EE04F08A51D9268B51DA22DF2A72
:10389800000120EE04F08A51D9268B51DA22050E58
:1038A800DF641200000120EE04F08A51D9268B5102
:1038B800DA22060EDF5E000120EE03F08A51D926D7
:1038C8008B51DA22DF2A000120EE03F08A51D92633
:1038D8008B51DA22090EDF641200000120EE03F09A
:1038E8008A51D9268B51DA220A0EDF5E000120EEBA
:1038F80002F08A51D9268B51DA22DF2A000120EE04
:1039080002F08A51D9268B51DA22050EDF641200A3
:10391800000120EE02F08A51D9268B51DA22060ED8
:10392800DF5E000120EE01F08A51D9268B51DA22A0
:10393800DF2A8AC0D9FF8BC0DAFFDE04D8A419D0E9
:10394800000120EE01F08A51D9268B51DA22090EA6
:10395800DF641200000120EE01F08A51D9268B5154
:10396800DA220A0EDF5E8AC0D9FF8BC0DAFFDF2AAF
:1039780012008AC0D9FF8BC0DAFF020EDE18D8A465
:103988001200000120EE01F08A51D9268B51DA226B
:10399800020EDF641200000120EE01F08A51D926E0
:1039A8008B51DA22000EDF6E8AC0D9FF8BC0DAFF96
:1039B800000EDF6E12000001656F000E0001676FD8
:1039C800000E666F000E00016B6F000E6A6F00013B
:1039D8006BBF08D000016B5146E1040E00016A5D1F
:1039E800D8B041D06AC062F0010E0001636F000ECA
:1039F8000001646F0001622B04D0D8900001633786
:103A080064370001622FF9D7000160510001631784
:103A18000001615100016417000163510001641144
:103A2800D8B41DD00001D8906A350001626F030E2A
:103A38000001636F000E0001646F0001622B04D067
:103A4800D8900001633764370001622FF9D700016D
:103A580063510001661300016451000167130001FE
:103A68006A4B6B2BB4D7000E0001696F000E686FAC
:103A7800000169BF08D0000169511EE1020E000172
:103A8800685DD8B012000001655100016825000189
:103A9800626F000E000169210001636F000E0001D2
:103AA8006225D96E070E00016321DA6E66C0DFFF5A
:103AB8000001684B692BDCD7120000016A6F6AC0ED
:103AC80060F00001616B000E0001636F0A0E626F07
:103AD8004BEC1EF0000160518AC0D9FF8BC0DAFFA1
:103AE800DF6E000120EE01F08A51D9268B51DA22CF
:103AF8006AC060F00001616B000E0001636F0A0E7E
:103B0800626FAAEC1EF000016051DF6E000120EE2A
:103B180002F08A51D9268B51DA2268C060F0000180
:103B2800616B000E0001636F0A0E626F4BEC1EF0B2
:103B380000016051DF6E000120EE03F08A51D926A2
:103B48008B51DA2268C060F00001616B000E000141
:103B5800636F0A0E626FAAEC1EF000016051DF6EFF
:103B6800000120EE04F08A51D9268B51DA2269C06F
:103B780060F00001616B000E0001636F0A0E626F56
:103B88004BEC1EF000016051DF6E000120EE05F0E5
:103B98008A51D9268B51DA2269C060F00001616B25
:103BA800000E0001636F0A0E626FAAEC1EF000019E
:103BB8006051DF6E12008AC0D9FF8BC0DAFFDF5078
:103BC80000016C6F00016C510001606F616B0D0E9C
:103BD800DFEC1CF0000120EE01F08A51D9268B5150
:103BE800DA22DF5000016C6F00016C510001606F38
:103BF800616B0B0EDFEC1CF0000120EE02F08A5125
:103C0800D9268B51DA22DF5000016C6F00016C510C
:103C18000001606F616B080EDFEC1CF0000120EE04
:103C280003F08A51D9268B51DA22DF5000016C6FDC
:103C380000016C510001606F616B060EDFEC1CF037
:103C4800000120EE04F08A51D9268B51DA22DF5088
:103C580000016C6F00016C510001606F616B030E15
:103C6800DFEC1CF0000120EE05F08A51D9268B51BB
:103C7800DA22DF5000016C6F00016C510001606FA7
:103C8800616B010EDFEC1CF0A3EC20F01200000EBB
:103C98000001656F000163AF08D00001626D631F0A
:103CA800D8B0632B010E0001656F000161AF08D029
:103CB8000001606D611FD8B0612B010E0001651B0A
:103CC800000E0001676F000E666F0001625100016F
:103CD8006311D8B42CD0010E0001646F06D0000126
:103CE800D890623763370001642B000163AFF7D7C0
:103CF8000001D89066376737000162510001605DA6
:103D08000001635100016159D8A00AD00001625135
:103D18000001605F000163510001615B0001668181
:103D28000001D890633362330001642FE1D70001AA
:103D380065510001D8B405D00001666D671FD8B081
:103D4800672B66C060F067C061F01200000E0001CA
:103D5800656F000161AF08D00001606D611FD8B0C8
:103D6800612B010E0001656F000163AF05D00001F2
:103D7800626D631FD8B0632B0001625100016311AB
:103D8800D8B426D0010E0001646F06D00001D89087
:103D9800623763370001642B000163AFF7D7000176
:103DA80062510001605D0001635100016159D8A0B2
:103DB80008D0000162510001605F000163510001F9
:103DC800615B0001D890633362330001642FE7D749
:103DD800000165510001D8B405D00001606D611F74
:103DE800D8B0612B60C060F061C061F012000001C2
:103DF8006451000165110001661100016711D8B412
:103E08003AD0010E0001686F08D00001D8906437DD
:103E18006537663767370001682B000167AFF5D74C
:103E2800000164510001605D0001655100016159A4
:103E38000001665100016259000167510001635990
:103E4800D8A010D0000164510001605F00016551E5
:103E58000001615B000166510001625B000167516E
:103E68000001635B0001D8906733663365336433C0
:103E78000001682FD5D760C060F061C061F062C0F2
:103E880062F063C063F01200E9CF26F0EACF27F0B2
:103E9800E1CF28F0E2CF29F0D9CF2AF0DACF2BF002
:103EA800F3CF2CF0F4CF2DF0F6CF2EF0F7CF2FF084
:103EB800F8CF30F0F5CF31F0F2A407D0010E0001B1
:103EC8008627000E87238823892384EF15F031C0C5
:103ED800F5FF30C0F8FF2FC0F7FF2EC0F6FF2DC04A
:103EE800F4FF2CC0F3FF2BC0DAFF2AC0D9FF29C08A
:103EF800E2FF28C0E1FF27C0EAFF26C0E9FF25C08E
:103F0800FBFF24C0FAFF47921100000E0001656F05
:103F1800000E646F0001625100016311D8B42CD007
:103F2800010E0001666F06D00001D8906237633732
:103F38000001662B000163AFF7D70001D890643702
:103F48006537000162510001605D000163510001A5
:103F58006159D8A00AD0000162510001605F0001D8
:103F680063510001615B000164810001D8906333F3
:103F780062330001662FE1D764C060F065C061F06C
:103F8800120086C064F087C065F088C066F089C0FA
:103F980067F0030E06D00001D890673366336533A7
:103FA8006433E82EF8D786C068F087C069F088C007
:103FB8006AF089C06BF00001D8906B336A336933BB
:103FC800683300016451000168250001606F000139
:103FD8006551000169210001616F0001665100010E
:103FE8006A210001626F0001675100016B21000125
:103FF800636F120067C060F068C061F0000E0001D6
:10400800636F0A0E626F89EC1FF060C067F061C0D1
:1040180068F00DD09C0E0001696FD70EE82EFED710
:10402800692FFCD700F000016707D8A068070001D6
:10403800675100016811D8B41200ECD78E0E000148
:104048008A6F000E00018B6F1E0E0001686F000E54
:104058000001696F0C0E61EC1DF0C5EC1FF060C02B
:1040680082F061C083F062C084F063C085F00F0EF7
:10407800086E12681200440EF66E410EF76E000EBE
:10408800F86E0900F5CF45F00900F5CF46F000EECF
:1040980082F0120EEE6AE806FDE1446A436A479030
:1040A8004792000EF86E00018AEF20F000C060F021
:1040B800000E006E000160A302D0010E1200000184
:1040C80060A902D0040E1200000160A502D0020E01
:1040D8001200000160A702D0030E1200000E1200A9
:1040E800000E0001606F0F0E0001606501D0120024
:1040F80000016051010D000EF324D96E070EF42063
:10410800DA6E000EDF6E0001602BEDD7000E0001A5
:10411800686F010E676FFEEC1FF0A4EC20F0A5ECB1
:1041280020F074EC20F0A3EC20F0C5EC1FF0D7ECE5
:1041380019F0D5EF19F08AEF15F0120004031200F8
:04414800120012004F
:020000040020DA
:08000000FFFFFFFFFFFFFFFF00
:020000040030CA
:0E0000002308183CFFD1A0FF00000000000004
:00000001FF
